:10000000C2EF09F068961200046ED8CF05F0E0CF79
:1000100006F00001E9CF0CF0EACF07F0E1CF08F0DD
:10002000E2CF09F0D9CF0AF0DACF0BF0F3CF12F01C
:10003000F4CF13F0FACF14F0F5CF15F0F6CF16F099
:10004000F7CF17F000C00EF001C00FF002C010F0A3
:1000500003C011F0A0AA30EF00F0A1BAA3EF07F09F
:100060000EC000F00FC001F010C002F011C003F08C
:100070000CC0E9FF07C0EAFF078E08C0E1FF09C016
:10008000E2FF0AC0D9FF0BC0DAFF12C0F3FF13C0B2
:10009000F4FF14C0FAFF15C0F5FF16C0F6FF17C035
:1000A000F7FF045006C0E0FF05C0D8FF1000F76A54
:1000B000BE0FF66E000EF7220900F5501200000385
:1000C00002FFFFFFFFFFFFFFFFFFFFFFFFFFF76ADA
:1000D000DE0FF66E000EF7220900F550120000FF49
:1000E00002FFFFFFFFFFFFFFFFFFFFFFFFFFF76ABA
:1000F000FE0FF66E000EF7220900F55012004000C8
:100100000B004000000000000000000000000000A4
:100110000000000000000000000000000000F76A7E
:100120002E0FF66E010EF7220900F5501200400066
:10013000000040000000000000000000000000007F
:100140000000000000000000000000000000F76A4E
:100150005E0FF66E010EF7220900F550120009023B
:100160004300020100803209040000010202010084
:1001700005240010010424020205240600010524C0
:10018000010001070581030B00FA09040100020ABE
:10019000000000070502024000010705820240003E
:1001A0000100F76AB20FF66E010EF7220900F55052
:1001B00012000200F76AC40FF66E010EF722090062
:1001C000F550120012171B20FFFFFFFFF76ADC0F2C
:1001D000F66E010EF7220900F5501200120110010F
:1001E0000200004061043300000101020001F76ACF
:1001F000FE0FF66E010EF7220900F55012000403FF
:10020000090408034300430053001803530045004A
:100210005200490041004C002000440045004D00C0
:100220004F006D92699468A402D06894FCD7AFEF38
:1002300007F0400E0401016F040E036F180E026FE9
:10024000880E006F046B040E076F580E066F0001D6
:10025000120070A002D0EDDF7090689AB8EF07F03E
:100260006A6A6892BEEF07F0AE91ADBFAE81AD9FF6
:10027000AD51100803E2000E016E16D0AEA10BD0F6
:10028000036AAD5114DFFF0802E1000E01D0010E38
:10029000016E0AD009D0036AAD5119DFFF0802E1EF
:1002A000000E01D0010E016E1200B251B403F3CF63
:1002B00001F0F4CF00F0B503F3500026B351B403BE
:1002C000F3500020026E1200036AAC51700FE96E09
:1002D0000F0E0320EA6EEF6AACC0ADF0C5DF01522D
:1002E00022E0B36BACC0B2F0B56B080EB46FDDDFCB
:1002F00001C0E9FF040E0224EA6EEF6AB36BACC0E2
:10030000B2F0B56B080EB46FD0DF02C0AEF001C022
:10031000ADF0040EAD27000EAE23ADC0E9FF040E14
:10032000AE25EA6EEF6A1200010EAB6FAB510F08FB
:1003300005E3ABC0ACF0C8DFAB2BF8D71200A56B60
:10034000A46B250EA36F800EA26FEA6A2B0EE96ED6
:10035000E26AA20EE16E020E016EE6CFEEFF012E02
:10036000FCD72D6A2E6AA26BEA6A2F0EE96EE26A4A
:10037000A20EE16EE6CFEEFFA26BEA6A300EE96EE6
:10038000E26AA20EE16EE6CFEEFF080EA26FEA6A05
:10039000310EE96EE26AA20EE16EE6CFEEFF806BEF
:1003A0007F91336A326A7B6B7C91816B1200286A81
:1003B000276AA16BA15101080AE3036AA151290F21
:1003C000E96E000E0320EA6EEF6AA12BF3D7B7DFC8
:1003D0001B6A010E1C6E1A6A12006A6A686A9F0E16
:1003E0006B6E3D0E696E6E6A9FDFE1DF160E706EFA
:1003F00068A602D007DEFCD76D981BDF030E226EC5
:10040000C4EF07F0698468986D82CAEF07F0689CB2
:10041000D0EF07F0A6C023F0120023681200A46BEF
:10042000275028102DE0A4513F082AE31D5005E075
:10043000020A09E0010A0DE011D026C003F02550A0
:1004400086DEA56F0BD026C003F02550D0DEA56F49
:1004500005D026C003F02550B9DEA56F252AD8B4F3
:10046000262A2750D8B428062706A451A42B580FB3
:10047000E96E040EEA6ED8B0EA2AA5C0EFFFD0D725
:100480002750281004E1A451400801E01A6AA4C0D2
:10049000A6F0C0DF1200266A256A1D6A04011B51FE
:1004A000010A000107E0030A0BE0010A0DE0220A3D
:1004B00022E03AD0286A120E276E030E1D6E36D047
:1004C000286A430E276E32D0020E1D6E036A0401A5
:1004D0001A511E0FE96E000E0320EA6E266AEFCF56
:1004E00025F026C003F02550000181DE036A276E47
:1004F00003C028F01BD0036A04011A5100015ADE20
:10050000036A256E03C026F0253C02D026520AE07D
:1005100026C003F025501BDE036A276E03C028F0B7
:1005200005D002D07ADF11D078DF0FD004011F533D
:1005300008E1285203E127501E5D03E2286A1EC429
:1005400027F0010E1A6E00016ADFC8EF03F0A35313
:1005500004E1040E226EE8DEC9D0050E226E040E00
:10056000A66F980EA56F010EA46FA4510F08D8A016
:10057000BDD0A4C0ACF0A8DEA76B036AA451A7DD70
:10058000FF0859E0040EA76FD890A435036AC7DDB1
:100590000900F5CF03F0A86F03C0A9F0B36BA4C0A6
:1005A000B2F0B56B080EB46F80DE01C0ABF0010E87
:1005B0000124016E000E0220036E01C0E9FF040E4B
:1005C0000324EA6EA8C0EFFFB36BA4C0B2F0B56B12
:1005D000080EB46F6ADE01C0ABF0020E0124016E9A
:1005E000000E0220036E01C0E9FF040E0324EA6E30
:1005F000A6C0ECFFED52A5C0EFFFD890A435036A6A
:100600008EDD0900F5CF03F0A5270350A623880E41
:10061000AA6FA9B1AA81A9B3AA83B36BA4C0B2F08F
:10062000B56B080EB46F41DE01C0E9FF040E022471
:10063000EA6EAAC0EFFF036AA45139DDFF0840E06B
:10064000A783B36BA4C0B2F0B56B080EB46F2DDEF8
:1006500002C0ACF001C0ABF0040EAB27000EAC231F
:10066000020EAB25016E000EAC21036E01C0E9FF46
:10067000040E0324EA6EA6C0ECFFED52A5C0EFFF06
:10068000D890A435036A33DD0900F5CF03F0A52720
:100690000350A623B36BA4C0B2F0B56B080EB46FC1
:1006A00004DE02C0ACF001C0ABF0040EAB27000EBC
:1006B000AC23ABC0E9FF040EAC25EA6E400EEF6E32
:1006C000A751060802E10E0EA76F036AA451EFDCE2
:1006D0000108D8A4A789036AA451700FE96E0F0E10
:1006E0000320EA6EA7C0EFFFA42B3FD7C3EF03F0B0
:1006F00004011951000A00010DE0010A14E0020A88
:100700001EE0060A27E0030A2CE00E0A2CE0010A8C
:1007100030E03DD01CC058F40401596B020E0001BA
:10072000A66F78DE35D004011A2D06D0010E1C16F6
:100730000001A66B6FDE02D000016FDE29D004013C
:100740001A2D05D01C820001A66B64DE02D00001C8
:1007500064DE1ED0020E1A6E1AC424F0A66B5ADE96
:1007600017D099D615D01BC058F4010EA66F52DED3
:100770000FD004011A51010808E31AC41BF01AC46F
:10078000A3F00001E4D6A66B45DE000101D045DEF2
:1007900038EF05F01BC0A3F004011951000A000155
:1007A00005E00A0A0BE0010A26E037D00401586B85
:1007B000596B020E0001A66F2DDE30D0A35319E055
:1007C000010EA35D036AEDDC016E04011C5DD8A07F
:1007D00002D000010ED0036A1C51290FE96E000EF1
:1007E0000320EA6EEFCF58F4010E0001A66F12DE6F
:1007F00001D013DE13D0A3530EE0036A04011C5191
:10080000290FE96E000E0320EA6E1AC4EFFF000103
:10081000A66B00DE01D001DE01D0FFDD38EF05F070
:10082000A491A3BFA481A39FA4A117D0B36BA3C01D
:10083000B2F0B56B080EB46F38DD02C0A6F001C08F
:10084000A5F0040EA527000EA623A5C0E9FF040EFF
:10085000A625EA6E880EEF6E0DD0B36BA3C0B2F082
:10086000B56B080EB46F21DD01C0E9FF040E022450
:10087000EA6EEF6AB0EF04F0A491A3BFA481A39F36
:10088000A4A117D0B36BA3C0B2F0B56B080EB46FC0
:100890000CDD02C0A6F001C0A5F0040EA527000ED5
:1008A000A623A5C0E9FF040EA625EA6E840EEF6E0E
:1008B0000ED0B36BA3C0B2F0B56B080EB46FF5DC0D
:1008C00001C0E9FF040E0224EA6E840EEF6EB6EF5B
:1008D00004F0A491A3BFA481A39FA4A117D0B36BDC
:1008E000A3C0B2F0B56B080EB46FDFDC02C0A7F096
:1008F00001C0A6F0040EA627000EA723A6C0E9FF9C
:10090000040EA725EA6EEFCFA5F00ED0B36BA3C0FF
:10091000B2F0B56B080EB46FC8DC01C0E9FF040E7D
:100920000224EA6EEFCFA5F0A5AF02D0A5B502D0A4
:10093000000E01D0010E016EC0EF04F01CC4ADF03A
:1009400093DC015228E004011951010A000105E07D
:10095000020A09E0030A0DE01DD01CC4A3F060D711
:10096000A66B58DD18D01CC4A3F086D7A66B52DD49
:1009700012D00401586B596B1CC4A3F00001A9D715
:10098000015204E0010E0401586F0001020EA66F2F
:1009900041DD01D042DD38EF05F0FE0E236E12007E
:1009A00004011C2D01D002D01C5348E11951000A4A
:1009B00000010BE0010A0DE0210A1CE0010A1FE022
:1009C000030A2EE0010A31E037D0010E816FE5DF26
:1009D00034D0040EEA6E580EE96EE26A340EE16E0F
:1009E000080E016EE6CFEEFF012EFCD71EC4A6F066
:1009F00011DD23D0020E816F7F81CFDF1ED0040E68
:100A0000EA6E580EE96EE26A2B0EE16E070E016E79
:100A1000E6CFEEFF012EFCD7070EA66FFBDC0DD054
:100A20001AC480F0A66BF6DC08D01AC433F01BC4DD
:100A300032F0A66BEFDC01D0F0DC0401000138EFEE
:100A400005F01A6A040118517F0B000A000107E043
:100A5000010A07E0030A07E0230A07E008D048D6A6
:100A600007D098D605D06AD703D09AD701D0D5DC65
:100A700059EF07F0B36BA4C0B2F0B56B080EB46FBA
:100A800014DC01C0E9FF040E0224EA6EEFCFA6F0E9
:100A9000A551020806E1A6AD02D0A56B02D0010E59
:100AA000A56FA55103081AE1840EA66FB36BA4C00D
:100AB000B2F0B56B080EB46F55EC01F002C0AAF0AD
:100AC00001C0A9F0040EA927000EAA23A9C0E9FFBE
:100AD000040EAA25EA6E840EEF6E07D0A52D03D072
:100AE000C80EA66F02D0880EA66FD890A435036AF0
:100AF0008FEC00F00900F5CF03F0A76F03C0A8F05A
:100B0000B36BA4C0B2F0B56B080EB46F55EC01F036
:100B100001C0A9F0010E0124016E000E0220036E37
:100B200001C0E9FF040E0324EA6EA7C0EFFFA8B1DD
:100B3000A681A8B3A683B36BA4C0B2F0B56B080EB0
:100B4000B46F55EC01F001C0E9FF040E0224EA6E17
:100B5000A6C0EFFF1200036AB151700FE96E0F0ECD
:100B60000320EA6EEF5219E0B36BB1C0B2F0B56B7F
:100B7000080EB46F55EC01F002C0B3F001C0B2F042
:100B8000040EB227000EB323B2C0E9FF040EB32552
:100B9000EA6EEFCFB4F0B4AF02D0000E01D0010E78
:100BA000016E1200ACC0B1F0D6DF0152D8B47BD0D8
:100BB000B36BACC0B2F0B56B080EB46F55EC01F07E
:100BC00002C0B2F001C0B1F0040EB127000EB22392
:100BD000010EB125016E000EB221036E01C0E9FFC6
:100BE000040E0324EA6EADC0EFFFAF5102081EE110
:100BF000B36BACC0B2F0B56B080EB46F55EC01F03E
:100C000002C0B2F001C0B1F0040EB127000EB22351
:100C1000B1C0E9FF040EB225EA6EEFCFB0F0B0AD7F
:100C200002D0AF6B02D0010EAF6F18D0AF510408E5
:100C300015E1B36BACC0B2F0B56B080EB46F55ECF8
:100C400001F001C0E9FF040E0224EA6EEFCFB0F01C
:100C5000B0AD03D0010EAF6F01D0AF6BAF2D03D09D
:100C6000C80EB06F02D0880EB06FAEB1B081AEB317
:100C7000B083B36BACC0B2F0B56B080EB46F55EC7B
:100C800001F002C0B2F001C0B1F0040EB127000EB5
:100C9000B223B1C0E9FF040EB225EA6EB0C0EFFF87
:100CA000010E016E02D0000E016E12008151010A88
:100CB00003E0030A13E024D0EA6A340EE96E040E5E
:100CC000E26E180EE16E080E016EE6CFEEFF012E09
:100CD000FCD7A66B0AEC02F0816B13D0EA6A2B0EEC
:100CE000E96E040EE26E180EE16E070E016EE6CF9D
:100CF000EEFF012EFCD7816BA66B0AEC02F001D04F
:100D0000816BB6EF06F0B36BA4C0B2F0B56B080E02
:100D1000B46F55EC01F002C0A6F001C0A5F0010EC1
:100D20000124016E000E0220036E01C0E9FF040ED3
:100D30000324EA6E036AEFCF01F003C002F0ACEFC8
:100D400006F07C91020EA46FA56F94DE12007C81E8
:100D50007E6B020EA46FD7D701C07DF07D5301E1F9
:100D6000F0DFBBEF06F0A35302E1A0D704D0A351FC
:100D7000020801E1ECD71200A4C06EFFA45303E007
:100D8000040E226E02D0020E226ECCEF06F01B6A19
:100D90001A6A24C0A4F0F0D738EF07F0A4C0B1F06D
:100DA000DADE015243E0B36BA4C0B2F0B56B080EBB
:100DB000B46F55EC01F002C0ADF001C0ACF0040E10
:100DC000AC27000EAD23020EAC25016E000EAD2146
:100DD000036E01C0E9FF040E0324EA6EECCFABF012
:100DE000ED52EFCFAAF0ABC0EAFFAAC0E9FFA6C060
:100DF000E2FFA5C0E1FFA8C002F0A7C001F00152C8
:100E000002E0022A02D0025206E0E6CFEEFF012EF7
:100E1000FCD7022EFAD7A4C0ACF0A8C0AEF0A7C091
:100E2000ADF0A9C0AFF0BEDE015002D0000E016EE1
:100E300012007B530EE0020EA46FA66B3C0EA56F52
:100E4000A86B7BC0A7F0020EA96FA8DF015201E0DA
:100E50007B6B1200EEDF3DEF07F0A3530AE11A2C83
:100E600003D00FEC02F004D01A50020801E18FD732
:100E700004D0A351020801E1EDD712002130A16F87
:100E8000A133A1331F0EA117215241E104010051EA
:100E90003C0B0001A26F430E040100170001A25198
:100EA00034081EE104010451800B01E0046B0001D1
:100EB000C8D56D98233C05D0A46B030EA56FDADD71
:100EC0000ED0A46B020EA56FD5DD2350FE0807E0FF
:100ED000AC6BAE6B23C0ADF0040EAF6F63DE16D00B
:100EE000A251040813E1A36B3EDFA46B020EA56FB1
:100EF000C1DD2350FE080AE0233C01D007D0AC6BD3
:100F0000AE6B23C0ADF0010EAF6F4CDE1AD0215096
:100F100004080EE12368A36BA0DF233C01D007D0B7
:100F2000AC6BAE6B23C0ADF0020EAF6F3BDE09D0F1
:100F300021B404D0A1C0A3F016DF03D0A1C0A3F058
:100F40008CDFDAEF07F0A19A225201E139D0685222
:100F500037E068A404D069A402D011EF01F06DA2BB
:100F600001D02ED068AA04D069AA02D029EF01F0DE
:100F700068A204D069A202D030EF01F068A004D0CA
:100F800069A002D0EDEF01F068A804D069A802D0F2
:100F900002EF02F068AC04D069AC02D007EF02F0B7
:100FA000A06B68A608D069A606D06CCF21F002EC31
:100FB00000F064D701D004D0A051A02B0308F1E2C7
:100FC00030EF00F08B92899A12006D6A696A080E00
:100FD0006F6E94503009946E226A196AF2BE198EAF
:100FE000F29ED7EC01F019BEF28EF8EF07F0EDD7C4
:100FF0001200196AF2BE198EF29ED7EC01F019BEEA
:10100000F28E6D6A140E6F6E696A6D86010E226E25
:101010000DEF08F06DB601D0ECD7222C0BD06DBAD5
:1010200009D0686A696AA08AC00EF212110E696E50
:10103000020E226E1200DBDFEDDF22500208FCE11F
:1010400024EF08F0D4DFF7D7E5DF7FB101D0FDD77B
:101050005DEF08F01B50016E5EEF08F00F0E926E10
:10106000000E936E300E946EC050C00B0709C06E18
:10107000C08EC280C150C00B0B09C16E000E016E44
:10108000C250C30B0110C26E000E0509CA6EFF0EDE
:10109000CB6E8B940C0EBD6EBE6A070EB46E925072
:1010A000926E270E006E002EFED700D0B450A19C89
:1010B000C66AB16AD56A86DFC5D7CCD70152FDE0D2
:1010C000D6EF09F07CB101D0FDD77E517E2BA30F66
:1010D000E96E040EEA6ED8B0EA2AEFCF8AF07D51AD
:1010E0007E5D07E3196AF2BE198EF29E2ADE19BEF2
:1010F000F28E8AC001F0DBEF09F085C0BEFF12005E
:101100008E0E006E8DC001F08CC002F0036A015299
:1011100009E102C001F0026A080E005E015202E11C
:10112000006A08D0D89001BE04D00236013600060D
:10113000F9D7019E78EF09F08C51D8B471D0006EC8
:101140009051D8B46DD0002604E3810E002668E2E9
:1011500004D07F0E005E64E363E08DC094F0915193
:10116000941B8D8F918F8F519303F4CF96F08E51F6
:101170009203F4CF03F0F3CF95F09303F350962747
:10118000F4509523000E03228F519203F3509627BB
:10119000F4509523000E026A032202228D5193031C
:1011A000F3509527F4500322000E02228D51920332
:1011B000F3500326F4500222000E016A01228F51DF
:1011C0009103F3509527F4500322000E02220122CE
:1011D0008E519103F3500326F4500222000E012297
:1011E0008D519103F3500226F4500122002A01BED2
:1011F00005D095370336023601360006000E95AF4E
:101200000AD0032A02220122015005E1025003E123
:10121000035001E1002A94BF018E94AF019E04D0D7
:10122000006A016A026A036A89EF09F08E0E006E95
:101230008A51005E8BC002F08CC001F0028E005219
:1012400009E0D890025202E1015204E00232013278
:10125000002EF7D78BAF05D0011E021E012AD8B48D
:10126000022A92EF09F08E91F2BE8E81F29E7B519E
:101270003E0802E23E0E7B6F7B517B2B036A3C0FE4
:10128000E96E000E0320EA6E8DC0EFFFF29E8EB174
:10129000F28E4EEF09F08CC08DF0E5D7196AF2BEE0
:1012A000198EF29E020EB16F56DC19BEF28E0152FB
:1012B00007E0196AF2BE198EF29EBBDD19BEF28EEE
:1012C00069EF09F07B513E0801E2FCD78BC08CF03E
:1012D000E2D71200C282C2B2FED7C4CF03F0C3CF9E
:1012E0008AF0C4CF8BF0C4CF8DF0C3CF8CF008D779
:1012F00003C08FF002C08EF001C08DF000C08CF0F2
:101300003D0E936F0A0E926F570E916F840E906F81
:1013100013D703C08DF002C08CF001C08BF000C069
:101320008AF084D702C083F001C082F08351036A3F
:101330008A6F8B6FC7DF82C08BF0C4DF1200BE6A7A
:10134000C0EF09F08B82898AC0EF09F08451300A1E
:101350000BE0740A0CE01E0A0CE00E0A0CE0040A12
:101360000CE01C0A0CE00CD0C8DEB4DF09D0C5DEEE
:1013700007D0E5D705D0AEDF03D024DE01D0E2D719
:10138000EAEF09F0F86AD09E078EEA6AE96A836B91
:10139000826BC150C00B0F09C16E070EB46E1E6A7E
:1013A000040E1F6E0C0E206E886B58D6BE6A32DE9D
:1013B0007CA11BD087D601C089F089510A080BE1B6
:1013C000036A8851840FE96E000E0320EA6EEF6A0B
:1013D000886BBCD70AD0036A8851840FE96E000E6F
:0E13E0000320EA6E89C0EFFF882BE1D70300DF
:020000040030CA
:0E00000004CE3E1E008781000FC00FE00F40AF
:00000001FF
;PIC18F2550
;CRC=59AC  CREATED="18-set-17 00:09"
